{"abi":[{"type":"constructor","inputs":[{"name":"_feeVault","type":"address","internalType":"address"},{"name":"_oracle","type":"address","internalType":"address"},{"name":"_merkleRoot","type":"bytes32","internalType":"bytes32"}],"stateMutability":"nonpayable"},{"type":"receive","stateMutability":"payable"},{"type":"function","name":"EMERGENCY_TIMEOUT","inputs":[],"outputs":[{"name":"","type":"uint256","internalType":"uint256"}],"stateMutability":"view"},{"type":"function","name":"MAX_GUESSES","inputs":[],"outputs":[{"name":"","type":"uint8","internalType":"uint8"}],"stateMutability":"view"},{"type":"function","name":"MAX_PLAYERS_PER_ROUND","inputs":[],"outputs":[{"name":"","type":"uint256","internalType":"uint256"}],"stateMutability":"view"},{"type":"function","name":"MIN_PLAYERS","inputs":[],"outputs":[{"name":"","type":"uint256","internalType":"uint256"}],"stateMutability":"view"},{"type":"function","name":"PROTOCOL_FEE_BPS","inputs":[],"outputs":[{"name":"","type":"uint16","internalType":"uint16"}],"stateMutability":"view"},{"type":"function","name":"WORD_LENGTH","inputs":[],"outputs":[{"name":"","type":"uint8","internalType":"uint8"}],"stateMutability":"view"},{"type":"function","name":"advancePhase","inputs":[{"name":"roundId","type":"uint256","internalType":"uint256"}],"outputs":[],"stateMutability":"nonpayable"},{"type":"function","name":"claimPrize","inputs":[{"name":"roundId","type":"uint256","internalType":"uint256"}],"outputs":[],"stateMutability":"nonpayable"},{"type":"function","name":"commitGuess","inputs":[{"name":"roundId","type":"uint256","internalType":"uint256"},{"name":"commitment","type":"bytes32","internalType":"bytes32"}],"outputs":[],"stateMutability":"nonpayable"},{"type":"function","name":"commitments","inputs":[{"name":"","type":"uint256","internalType":"uint256"},{"name":"","type":"address","internalType":"address"},{"name":"","type":"uint8","internalType":"uint8"}],"outputs":[{"name":"hash","type":"bytes32","internalType":"bytes32"},{"name":"revealed","type":"bool","internalType":"bool"},{"name":"guess","type":"bytes5","internalType":"bytes5"},{"name":"feedback","type":"uint40","internalType":"uint40"},{"name":"feedbackReceived","type":"bool","internalType":"bool"}],"stateMutability":"view"},{"type":"function","name":"createRound","inputs":[{"name":"tier","type":"uint8","internalType":"enum WordDuelArenaV2.Tier"},{"name":"wordHash","type":"bytes32","internalType":"bytes32"},{"name":"wordProof","type":"bytes32[]","internalType":"bytes32[]"}],"outputs":[{"name":"","type":"uint256","internalType":"uint256"}],"stateMutability":"nonpayable"},{"type":"function","name":"currentRoundByTier","inputs":[{"name":"","type":"uint8","internalType":"enum WordDuelArenaV2.Tier"}],"outputs":[{"name":"","type":"uint256","internalType":"uint256"}],"stateMutability":"view"},{"type":"function","name":"emergencyRefund","inputs":[{"name":"roundId","type":"uint256","internalType":"uint256"}],"outputs":[],"stateMutability":"nonpayable"},{"type":"function","name":"feeVault","inputs":[],"outputs":[{"name":"","type":"address","internalType":"address"}],"stateMutability":"view"},{"type":"function","name":"finalizeRound","inputs":[{"name":"roundId","type":"uint256","internalType":"uint256"}],"outputs":[],"stateMutability":"nonpayable"},{"type":"function","name":"getCommitment","inputs":[{"name":"roundId","type":"uint256","internalType":"uint256"},{"name":"player","type":"address","internalType":"address"},{"name":"guessNum","type":"uint8","internalType":"uint8"}],"outputs":[{"name":"","type":"tuple","internalType":"struct WordDuelArenaV2.Commitment","components":[{"name":"hash","type":"bytes32","internalType":"bytes32"},{"name":"revealed","type":"bool","internalType":"bool"},{"name":"guess","type":"bytes5","internalType":"bytes5"},{"name":"feedback","type":"uint40","internalType":"uint40"},{"name":"feedbackReceived","type":"bool","internalType":"bool"}]}],"stateMutability":"view"},{"type":"function","name":"getPlayerState","inputs":[{"name":"roundId","type":"uint256","internalType":"uint256"},{"name":"player","type":"address","internalType":"address"}],"outputs":[{"name":"","type":"tuple","internalType":"struct WordDuelArenaV2.PlayerState","components":[{"name":"registered","type":"bool","internalType":"bool"},{"name":"solved","type":"bool","internalType":"bool"},{"name":"solvedAtGuess","type":"uint8","internalType":"uint8"},{"name":"guessCount","type":"uint8","internalType":"uint8"},{"name":"claimablePrize","type":"uint256","internalType":"uint256"}]}],"stateMutability":"view"},{"type":"function","name":"getRound","inputs":[{"name":"roundId","type":"uint256","internalType":"uint256"}],"outputs":[{"name":"","type":"tuple","internalType":"struct WordDuelArenaV2.Round","components":[{"name":"id","type":"uint256","internalType":"uint256"},{"name":"tier","type":"uint8","internalType":"enum WordDuelArenaV2.Tier"},{"name":"wordHash","type":"bytes32","internalType":"bytes32"},{"name":"wordMerkleProof","type":"bytes32","internalType":"bytes32"},{"name":"pot","type":"uint256","internalType":"uint256"},{"name":"startTime","type":"uint256","internalType":"uint256"},{"name":"phaseDeadline","type":"uint256","internalType":"uint256"},{"name":"playerCount","type":"uint256","internalType":"uint256"},{"name":"phase","type":"uint8","internalType":"enum WordDuelArenaV2.Phase"},{"name":"currentGuess","type":"uint8","internalType":"uint8"},{"name":"winningGuessNum","type":"uint8","internalType":"uint8"},{"name":"winnerCount","type":"uint256","internalType":"uint256"},{"name":"rolloverPot","type":"uint256","internalType":"uint256"},{"name":"evaluated","type":"bool","internalType":"bool"},{"name":"finalized","type":"bool","internalType":"bool"}]}],"stateMutability":"view"},{"type":"function","name":"getRoundPlayers","inputs":[{"name":"roundId","type":"uint256","internalType":"uint256"}],"outputs":[{"name":"","type":"address[]","internalType":"address[]"}],"stateMutability":"view"},{"type":"function","name":"getRoundWinners","inputs":[{"name":"roundId","type":"uint256","internalType":"uint256"}],"outputs":[{"name":"","type":"address[]","internalType":"address[]"}],"stateMutability":"view"},{"type":"function","name":"getTierConfig","inputs":[{"name":"tier","type":"uint8","internalType":"enum WordDuelArenaV2.Tier"}],"outputs":[{"name":"","type":"tuple","internalType":"struct WordDuelArenaV2.TierConfig","components":[{"name":"entryFee","type":"uint256","internalType":"uint256"},{"name":"registrationWindow","type":"uint256","internalType":"uint256"},{"name":"commitWindow","type":"uint256","internalType":"uint256"},{"name":"revealWindow","type":"uint256","internalType":"uint256"},{"name":"feedbackWindow","type":"uint256","internalType":"uint256"},{"name":"active","type":"bool","internalType":"bool"}]}],"stateMutability":"view"},{"type":"function","name":"merkleRoot","inputs":[],"outputs":[{"name":"","type":"bytes32","internalType":"bytes32"}],"stateMutability":"view"},{"type":"function","name":"oracle","inputs":[],"outputs":[{"name":"","type":"address","internalType":"address"}],"stateMutability":"view"},{"type":"function","name":"owner","inputs":[],"outputs":[{"name":"","type":"address","internalType":"address"}],"stateMutability":"view"},{"type":"function","name":"playerStates","inputs":[{"name":"","type":"uint256","internalType":"uint256"},{"name":"","type":"address","internalType":"address"}],"outputs":[{"name":"registered","type":"bool","internalType":"bool"},{"name":"solved","type":"bool","internalType":"bool"},{"name":"solvedAtGuess","type":"uint8","internalType":"uint8"},{"name":"guessCount","type":"uint8","internalType":"uint8"},{"name":"claimablePrize","type":"uint256","internalType":"uint256"}],"stateMutability":"view"},{"type":"function","name":"register","inputs":[{"name":"roundId","type":"uint256","internalType":"uint256"}],"outputs":[],"stateMutability":"payable"},{"type":"function","name":"renounceOwnership","inputs":[],"outputs":[],"stateMutability":"nonpayable"},{"type":"function","name":"rescueETH","inputs":[],"outputs":[],"stateMutability":"nonpayable"},{"type":"function","name":"revealGuess","inputs":[{"name":"roundId","type":"uint256","internalType":"uint256"},{"name":"guess","type":"bytes5","internalType":"bytes5"},{"name":"salt","type":"bytes32","internalType":"bytes32"},{"name":"wordProof","type":"bytes32[]","internalType":"bytes32[]"}],"outputs":[],"stateMutability":"nonpayable"},{"type":"function","name":"rolloverPots","inputs":[{"name":"","type":"uint8","internalType":"enum WordDuelArenaV2.Tier"}],"outputs":[{"name":"","type":"uint256","internalType":"uint256"}],"stateMutability":"view"},{"type":"function","name":"roundCounter","inputs":[],"outputs":[{"name":"","type":"uint256","internalType":"uint256"}],"stateMutability":"view"},{"type":"function","name":"roundPlayers","inputs":[{"name":"","type":"uint256","internalType":"uint256"},{"name":"","type":"uint256","internalType":"uint256"}],"outputs":[{"name":"","type":"address","internalType":"address"}],"stateMutability":"view"},{"type":"function","name":"roundWinners","inputs":[{"name":"","type":"uint256","internalType":"uint256"},{"name":"","type":"uint256","internalType":"uint256"}],"outputs":[{"name":"","type":"address","internalType":"address"}],"stateMutability":"view"},{"type":"function","name":"rounds","inputs":[{"name":"","type":"uint256","internalType":"uint256"}],"outputs":[{"name":"id","type":"uint256","internalType":"uint256"},{"name":"tier","type":"uint8","internalType":"enum WordDuelArenaV2.Tier"},{"name":"wordHash","type":"bytes32","internalType":"bytes32"},{"name":"wordMerkleProof","type":"bytes32","internalType":"bytes32"},{"name":"pot","type":"uint256","internalType":"uint256"},{"name":"startTime","type":"uint256","internalType":"uint256"},{"name":"phaseDeadline","type":"uint256","internalType":"uint256"},{"name":"playerCount","type":"uint256","internalType":"uint256"},{"name":"phase","type":"uint8","internalType":"enum WordDuelArenaV2.Phase"},{"name":"currentGuess","type":"uint8","internalType":"uint8"},{"name":"winningGuessNum","type":"uint8","internalType":"uint8"},{"name":"winnerCount","type":"uint256","internalType":"uint256"},{"name":"rolloverPot","type":"uint256","internalType":"uint256"},{"name":"evaluated","type":"bool","internalType":"bool"},{"name":"finalized","type":"bool","internalType":"bool"}],"stateMutability":"view"},{"type":"function","name":"setFeeVault","inputs":[{"name":"_feeVault","type":"address","internalType":"address"}],"outputs":[],"stateMutability":"nonpayable"},{"type":"function","name":"setMerkleRoot","inputs":[{"name":"_merkleRoot","type":"bytes32","internalType":"bytes32"}],"outputs":[],"stateMutability":"nonpayable"},{"type":"function","name":"setOracle","inputs":[{"name":"_oracle","type":"address","internalType":"address"}],"outputs":[],"stateMutability":"nonpayable"},{"type":"function","name":"setTierConfig","inputs":[{"name":"tier","type":"uint8","internalType":"enum WordDuelArenaV2.Tier"},{"name":"entryFee","type":"uint256","internalType":"uint256"},{"name":"registrationWindow","type":"uint256","internalType":"uint256"},{"name":"commitWindow","type":"uint256","internalType":"uint256"},{"name":"revealWindow","type":"uint256","internalType":"uint256"},{"name":"feedbackWindow","type":"uint256","internalType":"uint256"},{"name":"active","type":"bool","internalType":"bool"}],"outputs":[],"stateMutability":"nonpayable"},{"type":"function","name":"startRound","inputs":[{"name":"roundId","type":"uint256","internalType":"uint256"}],"outputs":[],"stateMutability":"nonpayable"},{"type":"function","name":"submitFeedback","inputs":[{"name":"roundId","type":"uint256","internalType":"uint256"},{"name":"player","type":"address","internalType":"address"},{"name":"guessNum","type":"uint8","internalType":"uint8"},{"name":"feedback","type":"uint40","internalType":"uint40"},{"name":"signature","type":"bytes","internalType":"bytes"}],"outputs":[],"stateMutability":"nonpayable"},{"type":"function","name":"tierConfigs","inputs":[{"name":"","type":"uint8","internalType":"enum WordDuelArenaV2.Tier"}],"outputs":[{"name":"entryFee","type":"uint256","internalType":"uint256"},{"name":"registrationWindow","type":"uint256","internalType":"uint256"},{"name":"commitWindow","type":"uint256","internalType":"uint256"},{"name":"revealWindow","type":"uint256","internalType":"uint256"},{"name":"feedbackWindow","type":"uint256","internalType":"uint256"},{"name":"active","type":"bool","internalType":"bool"}],"stateMutability":"view"},{"type":"function","name":"totalActivePots","inputs":[],"outputs":[{"name":"","type":"uint256","internalType":"uint256"}],"stateMutability":"view"},{"type":"function","name":"transferOwnership","inputs":[{"name":"newOwner","type":"address","internalType":"address"}],"outputs":[],"stateMutability":"nonpayable"},{"type":"event","name":"EmergencyRefund","inputs":[{"name":"roundId","type":"uint256","indexed":true,"internalType":"uint256"},{"name":"player","type":"address","indexed":true,"internalType":"address"},{"name":"amount","type":"uint256","indexed":false,"internalType":"uint256"}],"anonymous":false},{"type":"event","name":"FeedbackProvided","inputs":[{"name":"roundId","type":"uint256","indexed":true,"internalType":"uint256"},{"name":"player","type":"address","indexed":true,"internalType":"address"},{"name":"guessNum","type":"uint8","indexed":false,"internalType":"uint8"},{"name":"feedback","type":"uint40","indexed":false,"internalType":"uint40"}],"anonymous":false},{"type":"event","name":"FundsRescued","inputs":[{"name":"to","type":"address","indexed":true,"internalType":"address"},{"name":"amount","type":"uint256","indexed":false,"internalType":"uint256"}],"anonymous":false},{"type":"event","name":"GuessCommitted","inputs":[{"name":"roundId","type":"uint256","indexed":true,"internalType":"uint256"},{"name":"player","type":"address","indexed":true,"internalType":"address"},{"name":"guessNum","type":"uint8","indexed":false,"internalType":"uint8"}],"anonymous":false},{"type":"event","name":"GuessRevealed","inputs":[{"name":"roundId","type":"uint256","indexed":true,"internalType":"uint256"},{"name":"player","type":"address","indexed":true,"internalType":"address"},{"name":"guessNum","type":"uint8","indexed":false,"internalType":"uint8"},{"name":"guess","type":"bytes5","indexed":false,"internalType":"bytes5"}],"anonymous":false},{"type":"event","name":"OracleUpdated","inputs":[{"name":"oldOracle","type":"address","indexed":true,"internalType":"address"},{"name":"newOracle","type":"address","indexed":true,"internalType":"address"}],"anonymous":false},{"type":"event","name":"OwnershipTransferred","inputs":[{"name":"previousOwner","type":"address","indexed":true,"internalType":"address"},{"name":"newOwner","type":"address","indexed":true,"internalType":"address"}],"anonymous":false},{"type":"event","name":"PhaseAdvanced","inputs":[{"name":"roundId","type":"uint256","indexed":true,"internalType":"uint256"},{"name":"phase","type":"uint8","indexed":false,"internalType":"enum WordDuelArenaV2.Phase"},{"name":"guessNum","type":"uint8","indexed":false,"internalType":"uint8"},{"name":"deadline","type":"uint256","indexed":false,"internalType":"uint256"}],"anonymous":false},{"type":"event","name":"PlayerRegistered","inputs":[{"name":"roundId","type":"uint256","indexed":true,"internalType":"uint256"},{"name":"player","type":"address","indexed":true,"internalType":"address"},{"name":"pot","type":"uint256","indexed":false,"internalType":"uint256"}],"anonymous":false},{"type":"event","name":"PlayerSolved","inputs":[{"name":"roundId","type":"uint256","indexed":true,"internalType":"uint256"},{"name":"player","type":"address","indexed":true,"internalType":"address"},{"name":"guessNum","type":"uint8","indexed":false,"internalType":"uint8"}],"anonymous":false},{"type":"event","name":"PotRollover","inputs":[{"name":"tier","type":"uint8","indexed":true,"internalType":"enum WordDuelArenaV2.Tier"},{"name":"amount","type":"uint256","indexed":false,"internalType":"uint256"},{"name":"nextRoundId","type":"uint256","indexed":false,"internalType":"uint256"}],"anonymous":false},{"type":"event","name":"PrizeClaimed","inputs":[{"name":"roundId","type":"uint256","indexed":true,"internalType":"uint256"},{"name":"player","type":"address","indexed":true,"internalType":"address"},{"name":"amount","type":"uint256","indexed":false,"internalType":"uint256"}],"anonymous":false},{"type":"event","name":"RoundComplete","inputs":[{"name":"roundId","type":"uint256","indexed":true,"internalType":"uint256"},{"name":"winnerCount","type":"uint256","indexed":false,"internalType":"uint256"},{"name":"prizePerWinner","type":"uint256","indexed":false,"internalType":"uint256"}],"anonymous":false},{"type":"event","name":"RoundCreated","inputs":[{"name":"roundId","type":"uint256","indexed":true,"internalType":"uint256"},{"name":"tier","type":"uint8","indexed":true,"internalType":"enum WordDuelArenaV2.Tier"},{"name":"wordHash","type":"bytes32","indexed":false,"internalType":"bytes32"},{"name":"startTime","type":"uint256","indexed":false,"internalType":"uint256"}],"anonymous":false},{"type":"event","name":"TierConfigured","inputs":[{"name":"tier","type":"uint8","indexed":true,"internalType":"enum WordDuelArenaV2.Tier"},{"name":"entryFee","type":"uint256","indexed":false,"internalType":"uint256"},{"name":"commitWindow","type":"uint256","indexed":false,"internalType":"uint256"},{"name":"revealWindow","type":"uint256","indexed":false,"internalType":"uint256"}],"anonymous":false},{"type":"error","name":"AlreadyCommitted","inputs":[]},{"type":"error","name":"AlreadyEvaluated","inputs":[]},{"type":"error","name":"AlreadyFinalized","inputs":[]},{"type":"error","name":"AlreadyRegistered","inputs":[]},{"type":"error","name":"AlreadyRevealed","inputs":[]},{"type":"error","name":"CommitWindowClosed","inputs":[]},{"type":"error","name":"ECDSAInvalidSignature","inputs":[]},{"type":"error","name":"ECDSAInvalidSignatureLength","inputs":[{"name":"length","type":"uint256","internalType":"uint256"}]},{"type":"error","name":"ECDSAInvalidSignatureS","inputs":[{"name":"s","type":"bytes32","internalType":"bytes32"}]},{"type":"error","name":"EmergencyTimeoutNotReached","inputs":[]},{"type":"error","name":"FeedbackAlreadyProvided","inputs":[]},{"type":"error","name":"IncorrectEntryFee","inputs":[]},{"type":"error","name":"InvalidFeeVault","inputs":[]},{"type":"error","name":"InvalidOracle","inputs":[]},{"type":"error","name":"InvalidOracleSignature","inputs":[]},{"type":"error","name":"InvalidReveal","inputs":[]},{"type":"error","name":"InvalidTier","inputs":[]},{"type":"error","name":"InvalidWordProof","inputs":[]},{"type":"error","name":"MaxPlayersReached","inputs":[]},{"type":"error","name":"MinPlayersNotMet","inputs":[]},{"type":"error","name":"NoPrizeToClaim","inputs":[]},{"type":"error","name":"NotCommitted","inputs":[]},{"type":"error","name":"NotRegistered","inputs":[]},{"type":"error","name":"NothingToRescue","inputs":[]},{"type":"error","name":"OwnableInvalidOwner","inputs":[{"name":"owner","type":"address","internalType":"address"}]},{"type":"error","name":"OwnableUnauthorizedAccount","inputs":[{"name":"account","type":"address","internalType":"address"}]},{"type":"error","name":"PhaseNotComplete","inputs":[]},{"type":"error","name":"PlayerAlreadySolved","inputs":[]},{"type":"error","name":"ReentrancyGuardReentrantCall","inputs":[]},{"type":"error","name":"RevealWindowClosed","inputs":[]},{"type":"error","name":"RoundNotComplete","inputs":[]},{"type":"error","name":"RoundNotInPhase","inputs":[{"name":"expected","type":"uint8","internalType":"enum WordDuelArenaV2.Phase"},{"name":"actual","type":"uint8","internalType":"enum WordDuelArenaV2.Phase"}]},{"type":"error","name":"TierNotActive","inputs":[]}],"bytecode":{"object":"0x608034620002a757601f62002d3d38819003918201601f191683019291906001600160401b03841183851017620002ab578160609284926040968752833981010312620002a7576200005181620002df565b6020918362000062848301620002df565b91015190331562000290575f80546001600160a01b031980821633908117845588519491936001600160a01b03938416907f8be0079c531659141344cd1fd0a4f28419497f9722a3daafe3b4186f6b6457e09080a381600196877f9b779b17422d0df92223018b32b4d1fa46e071723d6817e2486d003becc55f00551693841562000281575016918215620002705781600a541617600a55600b541617600b5560095560ff600562000113620002bf565b9266038d7ea4c68000845281858501946102588652878101601e815260608201601e81526080830191603c835260a0840198868a525f8052868b528b5f209451855551868501555160028401555160038301555160048201550193511515938319948486835416911617905562000189620002bf565b662386f26fc10000815282868201916107088352888101602d815260608201602d81526080830191603c835260a0840195878752875f52878c528c5f20945185555187850155516002840155516003830155516004820155019051151584868354169116179055620001fa620002bf565b9067016345785d8a0000825285820190610e108252878301603c81526060840191603c83526080850193607885528160a087019a5f8c5260025f52528a5f20955186555190850155516002840155516003830155516004820155019251151591835416911617905551612a489081620002f58239f35b8651639589a27d60e01b8152600490fd5b63423eca3760e11b8152600490fd5b8451631e4fbdf760e01b81525f6004820152602490fd5b5f80fd5b634e487b7160e01b5f52604160045260245ffd5b6040519060c082016001600160401b03811183821017620002ab57604052565b51906001600160a01b0382168203620002a75756fe6080604052600436101561001a575b3615610018575f80fd5b005b5f3560e01c806303e3cd6a146124d757806314b1e0e4146124bc57806320800a00146123e15780632e881471146123705780632eb4a7ab146123535780633235f10d146120465780633469f6e214611d5157806339b8123814611d36578063478222c214611d0e5780635fc3d52d14611c56578063671eea0114611c0e578063684d467814611bf357806370e5deb914611a59578063715018a614611a0257806374b54699146119da578063776e11dd1461195957806379014c8c146115c15780637aa6f521146112dd5780637adbf9731461125d5780637cb647591461123c5780637dc0d1d0146112145780637f264076146111f757806381aaf4ce14610fd757806385f07bbe14610fbc5780638c65c81f14610ed75780638da5cb5b14610eb05780638f1327c014610ca15780639da9db2a14610c34578063a203387614610b6f578063a591f97f14610b16578063aced0b9e14610a28578063ae9b2d6414610902578063b20bfbb91461084d578063b34095231461081c578063be37822814610800578063c022c52314610730578063c0338ba3146106b9578063c8eb168d1461069c578063d7098154146105bc578063e3fc18c014610538578063f207564e1461029d578063f2fde38b146102185763febc14b10361000e5734610214575f366003190112610214576020600354604051908152f35b5f80fd5b3461021457602036600319011261021457610231612601565b6102396127f2565b6001600160a01b03908116908115610285575f54826001600160601b0360a01b8216175f55167f8be0079c531659141344cd1fd0a4f28419497f9722a3daafe3b4186f6b6457e05f80a3005b604051631e4fbdf760e01b81525f6004820152602490fd5b602080600319360112610214576004356102b561281d565b805f526002825260405f208054156105265760ff80600883015416600581101561051257806104ec5750600682015442116104da57825f526005845260405f20335f5284528060405f2054166104c85760078201916064835410156104b657610323826001830154166125a6565b60405161032f81612672565b60a084600584549485855260018101548b860152600281015460408601526003810154606086015260048101546080860152015416151591015234036104a4577f1554eea6bdedf6e383fb69807ae2cb84a760cbea05b884c10fd0b94950addcc892600492600186610445604051936103a7856126ab565b8385528a61042b828288015f815261041360408a01915f835260608b01955f875260808c01995f8b525f526005815260405f2090335f52526103fc60405f209b5115158c9060ff801983541691151516179055565b518a5461ff00191690151560081b61ff0016178a55565b51885462ff00001916911660101b62ff000016178755565b51855463ff0000001916911660181b63ff00000016178455565b51910155845f526007865261045d3360405f20612777565b6104678154612750565b90550161047534825461275e565b815561048334600d5461275e565b600d5554926040519384523393a360015f805160206129f383398151915255005b604051630440523d60e41b8152600490fd5b6040516394d0eef960e01b8152600490fd5b604051630ea075bf60e21b8152600490fd5b6040516352cc987160e11b8152600490fd5b604051630c5308c160e01b81525f6004820152604491610510906024830190612624565bfd5b634e487b7160e01b5f52602160045260245ffd5b60405163e142361760e01b8152600490fd5b346102145761054636612631565b915f52600660205260405f209060018060a01b03165f5260205260ff60405f2091165f5260205260a060405f2060ff600182549201546040519283528181161515602084015264ffffffffff60d81b8160d01b16604084015264ffffffffff8160301c16606084015260581c1615156080820152f35b34610214576020366003190112610214576004356105d861281d565b805f52600560205260405f20335f52602052600160405f200190815491821561068a575f90555f80808085335af161060e612721565b5015610653576040519182527f4aa95f981a8337cb337de335b965507da0879c3b49f799d20058e913f5ad2c2660203393a360015f805160206129f383398151915255005b60405162461bcd60e51b815260206004820152600f60248201526e151c985b9cd9995c8819985a5b1959608a1b6044820152606490fd5b604051630fe160f360e11b8152600490fd5b34610214575f366003190112610214576020600d54604051908152f35b34610214576040366003190112610214576106d26125eb565b6004355f52600560205260405f209060018060a01b03165f5260205260a060405f206001815491015460ff6040519281811615158452818160081c1615156020850152818160101c16604085015260181c1660608301526080820152f35b346102145760203660031901126102145760043560038110156102145761078460c0915f60a060405161076281612672565b82815282602082015282604082015282606082015282608082015201526125a6565b60405161079081612672565b8154918282526001810154602083019081526002820154604084019081526003830154916060850192835260a060ff6005600487015496608089019788520154169501941515855260405195865251602086015251604085015251606084015251608083015251151560a0820152f35b34610214575f3660031901126102145760206040516101f48152f35b34610214576020366003190112610214576004356003811015610214576108446020916125d4565b54604051908152f35b34610214576040366003190112610214576108666125eb565b61086e6127c8565b506004355f52600560205260405f209060018060a01b03165f5260205260a060405f2060405161089d816126ab565b815460ff908180821615159485855260208501828460081c1615158152608060016040880193858760101c1685528560608a019760181c1687520154960195865260405196875251151560208701525116604085015251166060830152516080820152f35b3461021457604036600319011261021457600435805f526020906002825260405f206005835260405f20335f52835260405f205460ff811615610a165760088201549160ff8316600581101561051257600181036109f157506006015442116104da5760081c60ff166109df5760ff9060081c1691815f526006815260405f20335f52815260405f20835f52815260405f209081546109cd577fa8f91b2fc64e18f777ce3d6145ec3c540e68b6057671fabe5efe45104c4ac96b9160243590556040519384523393a3005b6040516317fd8aab60e31b8152600490fd5b60405163b2e1503360e01b8152600490fd5b604051630c5308c160e01b815260016004820152604491610510906024830190612624565b60405163aba4733960e01b8152600490fd5b346102145760e036600319011261021457600435600381101561021457602435606435906084359060c43591821515809303610214577f6f760b312ddfff90c5e0676d8e208d6359b435622eb7af7512da45e2f99096dc93610b03606094610a8e6127f2565b600560405191610a9d83612672565b86835289602084016044358152604085018781528a860191898352610ad1608088019460a435865260a089019687526125a6565b9651875551600187015551600286015551600385015551600484015551151591019060ff801983541691151516179055565b60405192835260208301526040820152a2005b3461021457602036600319011261021457610b2f612601565b610b376127f2565b6001600160a01b03168015610b5d576001600160601b0360a01b600a541617600a555f80f35b60405163423eca3760e11b8152600490fd5b3461021457610b7d36612631565b91610b866127c8565b505f52600660205260405f209060018060a01b03165f5260205260ff60405f2091165f5260205260a060405f20604051610bbf816126ab565b6001825492838352015490602081019060ff83161515825264ffffffffff60d81b60408201818560d01b16815264ffffffffff9360ff60806060860195878960301c168752019660581c1615158652604051968752511515602087015251166040850152511660608301525115156080820152f35b3461021457602036600319011261021457600435600381101561021457610c5c60c0916125a6565b805490600181015490600281015460038201549060ff6005600485015494015416936040519586526020860152604085015260608401526080830152151560a0820152f35b34610214576020366003190112610214575f6101c0604051610cc28161268e565b8281528260208201528260408201528260608201528260808201528260a08201528260c08201528260e08201528261010082015282610120820152826101408201528261016082015282610180820152826101a082015201526004355f52600260205260405f20604051610d358161268e565b81548152610d4d60ff6001840154166020830161276b565b600282015460408201526003820154606082015260048201546080820152600582015460a0820152600682015460c0820152600782015460e0820152600882015491600560ff8416101561051257600b60ff918285816101e09716610100870152818160081c1661012087015260101c166101408501526009810154610160850152600a810154610180850152015481811615156101a084015260081c1615156101c08201526101c06040519180518352610e1060208201516020850190612617565b60408101516040840152606081015160608401526080810151608084015260a081015160a084015260c081015160c084015260e081015160e0840152610e60610100820151610100850190612624565b60ff6101208201511661012084015260ff610140820151166101408401526101608101516101608401526101808101516101808401526101a081015115156101a0840152015115156101c0820152f35b34610214575f366003190112610214575f546040516001600160a01b039091168152602090f35b34610214576020366003190112610214576004355f52600260205260405f2080549060ff908160018201541690600281015483600383015460048401546005850154600686015490600787015492600888015494600989015497600a8a015499600b01549a604051809e8152602001610f4f91612617565b60408d015260608c015260808b015260a08a015260c089015260e0880152610f7d6101008801828416612624565b818160081c1661012088015260101c1661014086015261016085015261018084015281811615156101a084015260081c1615156101c08201526101e090f35b34610214575f36600319011261021457602060405160028152f35b34610214576020806003193601126102145760043590815f526002815260405f2060ff9161100a836001840154166125a6565b9260405161101781612672565b84548152600185015483820152600285015490604081019182526003860154906060810191825260a084600560048a015499608085019a8b5201541615159101526006850195865442106111e5576008809601928354858116600581101561051257600181036110ca57505050509160609493916110b15f805160206129d38339815191529794600260ff1984541617809355514261275e565b80945560405194600286521c16908301526040820152a2005b92935090916002810361111f575050509160609493916111065f805160206129d38339815191529794600360ff1984541617809355514261275e565b80945560405194600386521c16908301526040820152a2005b60039197969492989593501461113157005b5f805160206129d383398151915296868360609860101c16158015906111d6575b1561118057505090919250600460ff198254161780915560405193600485521c1690820152426040820152a2005b906111aa611194856111bd948a1c166127b7565b845461ff00191660089190911b61ff0016178455565b600160ff1984541617809355514261275e565b80945560405194600186521c16908301526040820152a2005b5060068482891c161015611152565b6040516315150fb960e01b8152600490fd5b34610214575f366003190112610214576020604051620151808152f35b34610214575f36600319011261021457600b546040516001600160a01b039091168152602090f35b34610214576020366003190112610214576112556127f2565b600435600955005b3461021457602036600319011261021457611276612601565b61127e6127f2565b6001600160a01b039081169081156112cb5781600b549182167f078c3b417dadf69374a59793b829c52001247130433427049317bde56607b1b75f80a36001600160a01b03191617600b55005b604051639589a27d60e01b8152600490fd5b34610214576080366003190112610214576024356004356001600160d81b031982168083036102145767ffffffffffffffff60643581811161021457611327903690600401612575565b949091845f526020926002845260405f20906005976005865260405f20335f52865260405f209384549360ff9485811615610a16576008820154918683166005811015610512576002810361159c575060060154421161158a5760081c85166109df57849060081c1699895f526006885260405f20335f52885260405f208b5f52885260405f20805493841561157857600180920195865495888716611566578c6040518d81019182526044356025820152602581526113e6816126c7565b51902003611554578b600954958661147a575b50505050505050906001611430939265ffffffffff006114499760d01c169065ffffffffffff191617179055825460181c166127b7565b63ff00000082549160181b169063ff0000001916179055565b6040519384528301527ff6c6727d5a6ab72ce77d8b976df9f45da9fa45d8413423d91f3c053d51a9b21e60403393a3005b60409998979951908d82019283526005825260408201908282109082111761154057604052519020935f939291905b8285106114da575050505050036114c857909189808080808b816113f9565b604051639b328ddd60e01b8152600490fd5b90919284958d8296841b850135808311155f1461151b5760405191820192835260408201526040815261150c816126c7565b519020955b01939291906114a9565b91604051918201928352604082015260408152611537816126c7565b51902095611511565b634e487b7160e01b5f52604160045260245ffd5b604051639ea6d12760e01b8152600490fd5b60405163a89ac15160e01b8152600490fd5b60405163205e472d60e21b8152600490fd5b6040516340d8392160e11b8152600490fd5b604051630c5308c160e01b815260026004820152604491610510906024830190612624565b346102145760a0366003190112610214576115da6125eb565b60ff60443516604435036102145764ffffffffff60643516606435036102145767ffffffffffffffff8060843511610214573660236084350112156102145760843560040135116102145736602460843560040135608435010111610214576004355f52600260205260405f2060ff6008820154166005811015610512576003810361193457506004355f52600660205260405f2060018060a01b0383165f5260205260405f2060ff604435165f52602052600160405f2001805460ff8116156115785760ff8160581c1661192257604051602081019060043582526001600160601b03198660601b16604082015260ff60f81b60443560f81b16605482015264ffffffffff60d81b60643560d81b166055820152603a81526116fc816126c7565b5190207f19457468657265756d205369676e6564204d6573736167653a0a3332000000005f52601c5261177c611773603c5f2061173e60843560040135612705565b9061174c60405192836126e3565b60843560048101358084529060240160208401375f6020608435600401358401015261289c565b909291926128d6565b600b546001600160a01b0390811691160361191057600160581b906affffffffff00000000000060643560301b16906bffffffffffff0000000000001916171790556117c960643561284c565b61181f575b506040805160443560ff16815260643564ffffffffff1660208201526001600160a01b0390921691600435917f2cbdbc6c76e223df8df4ab7b775d1bc32c1f16aaa9c9bac06e1e7698bfdbdb3c91a3005b6004355f9081526005602090815260408083206001600160a01b03861684529091529020805462ffff00191660443560101b62ff0000161761010017905560ff600882015460101c16156118f1575b60ff600882015460101c1660ff60443516036117ce576009906004355f52600860205261189e8360405f20612777565b016118a98154612750565b905560405160443560ff1681526001600160a01b03821690600435907fd6c9ece6c2f8af5b6bf6d5c572df38d0d84dd8176b083ff499afb4d91dda16c390602090a3816117ce565b60088101805462ff0000191660443560101b62ff00001617905561186e565b604051632f58c7cd60e01b8152600490fd5b6040516390d78f1160e01b8152600490fd5b604051630c5308c160e01b815260036004820152604491610510906024830190612624565b3461021457602080600319360112610214576004355f52600760205260405f20906040519081602084549182815201935f5260205f20915f905b8282106119ba576119b6856119aa818903826126e3565b60405191829182612531565b0390f35b83546001600160a01b031686529485019460019384019390910190611993565b34610214576020366003190112610214576004356003811015610214576108446020916125bd565b34610214575f36600319011261021457611a1a6127f2565b5f80546001600160a01b0319811682556001600160a01b03167f8be0079c531659141344cd1fd0a4f28419497f9722a3daafe3b4186f6b6457e08280a3005b346102145760208060031936011261021457600435611a7661281d565b805f526002825260405f20916005815260405f20335f52815260405f2080549360ff851615610a165760ff600b82015460081c16611be1576005810154620151808101809111611bcd574210611bbb5760ff6001611ad6920154166125a6565b93604051611ae381612672565b60a060ff6005885498898552600181015488860152600281015460408601526003810154606086015260048101546080860152015416151591015260ff19169055611b3083600d54612665565b600d555f80808086335af1611b43612721565b5015611b87577fbd634c7bdf536d4ef89dad94ea8933d03e5fbb8be4f85fc7699f5859497d793f906040519384523393a360015f805160206129f383398151915255005b6064906040519062461bcd60e51b82526004820152600d60248201526c1499599d5b990819985a5b1959609a1b6044820152fd5b6040516307eef31560e01b8152600490fd5b634e487b7160e01b5f52601160045260245ffd5b60405163475a253560e01b8152600490fd5b34610214575f36600319011261021457602060405160068152f35b3461021457611c1c36612506565b905f52600760205260405f20805482101561021457602091611c3d9161251c565b905460405160039290921b1c6001600160a01b03168152f35b3461021457602036600319011261021457600435611c726127f2565b805f52600260205260405f2060088101805460ff8116600581101561051257806104ec57506002600784015410611cfc575f805160206129d38339815191529260609261010160069361ffff1916179055611ce06002611cd860ff6001850154166125a6565b01544261275e565b91829101556040519060018252600160208301526040820152a2005b60405163d5fa87ab60e01b8152600490fd5b34610214575f36600319011261021457600a546040516001600160a01b039091168152602090f35b34610214575f36600319011261021457602060405160058152f35b34610214576020806003193601126102145760043590611d6f61281d565b815f526002815260405f209060ff60088301541660059060058110156105125760040361203557600b8301805460ff8160081c16611be1576101009061ff0019161790556004830154926101f4808502908582041485151715611bcd57612710900493611ddc8582612665565b9480612001575b50611df090600d54612665565b600d5560098101805490919015611f6e575080548015611f5a578404925f92865f526008825260405f20925f945b8454861015611e6957611e61876001928b5f5285875260405f20611e428a8a61251c565b868060a01b0391549060031b1c165f528752818460405f20015561275e565b950194611e1e565b91509350611e779195612665565b9081151580611f50575b611ecd575b5050916040917f0f45270904b0a211f7921d7deb10ea68dfd434fd67b956b4ca16342f93532ba09354918351928352820152a25b60015f805160206129f383398151915255005b92909391855f526005835260405f2094845415611f3c575f948552838520546001600160a01b0316855294835260409384902060010180547f0f45270904b0a211f7921d7deb10ea68dfd434fd67b956b4ca16342f93532ba096611f309161275e565b90559193819350611e86565b634e487b7160e01b5f52603260045260245ffd5b5080541515611e81565b634e487b7160e01b5f52601260045260245ffd5b60ff92506001915093929301611f86828254166125bd565b611f9184825461275e565b90555416916003831015610512577f0f45270904b0a211f7921d7deb10ea68dfd434fd67b956b4ca16342f93532ba0927ff184f4d5ee7aefe9751716b5b75ed64fa6aea3372fda5f9ccf01b26c73193b886040809481519081525f85820152a25f825191818352820152a2611eba565b5f8080808460018060a01b03600a54165af161201b612721565b50611de35761202e90611df0929661275e565b9490611de3565b60405162ace4c560e51b8152600490fd5b34610214576060366003190112610214576004356003811015610214576024359060443567ffffffffffffffff811161021457612087903690600401612575565b91906120916127f2565b61209a826125a6565b926040516120a781612672565b8454815260ff600560018701549660208401978852600281015460408501526003810154606085015260048101546080850152015416159060a082159101526123415760405160208101929091906001600160fb1b038211610214578260209161211f9360051b8091873781010380845201826126e3565b5190209261212e600354612750565b928360035561216261213f846125bd565b54915f61214b866125bd565b5561215883600d5461275e565b600d55514261275e565b6040519561216f8761268e565b85875261217f856020890161276b565b83604088015260608701528160808701524260a087015260c08601525f60e08601525f6101008601525f6101208601525f6101408601525f6101608601526101808501525f6101a08501525f6101c0850152825f52600260205260405f2084518155600181019060208601519160038310156105125760ff199260ff84835416911617905560408601516002820155606086015160038201556080860151600482015560a0860151600582015560c0860151600682015560e086015160078201556008810192610100870151926005841015610512576020976101c0600b6040956122d6897f23a14831e80587b6969622490d42739244b98c6342779b8fcdb4869caf5b57629960ff612323988f9d541691161781556122b860ff61012088015116829061ff0082549160081b169061ff001916179055565b610140860151815462ff0000191660109190911b62ff000016179055565b6101608401516009820155610180840151600a820155019161230b6101a08201511515849060ff801983541691151516179055565b0151815461ff00191690151560081b61ff0016179055565b8361232d866125d4565b5581519081524287820152a3604051908152f35b604051632015bd1360e11b8152600490fd5b34610214575f366003190112610214576020600954604051908152f35b3461021457602080600319360112610214576004355f52600860205260405f20906040519081602084549182815201935f5260205f20915f905b8282106123c1576119b6856119aa818903826126e3565b83546001600160a01b0316865294850194600193840193909101906123aa565b34610214575f366003190112610214576123f96127f2565b61240161281d565b61240e47600d5490612665565b80156124ab5760018060a01b035f80808085858254165af161242e612721565b50156124765760207fc4474c2790e13695f6d2b6f1d8e164290b55370f87a542fd7711abe0a1bf40ac915f541692604051908152a260015f805160206129f383398151915255005b60405162461bcd60e51b815260206004820152600d60248201526c14995cd8dd594819985a5b1959609a1b6044820152606490fd5b604051620f6b2160e41b8152600490fd5b34610214575f36600319011261021457602060405160648152f35b34610214576124e536612506565b905f52600860205260405f20805482101561021457602091611c3d9161251c565b6040906003190112610214576004359060243590565b8054821015611f3c575f5260205f2001905f90565b60209060206040818301928281528551809452019301915f5b828110612558575050505090565b83516001600160a01b03168552938101939281019260010161254a565b9181601f840112156102145782359167ffffffffffffffff8311610214576020808501948460051b01011161021457565b6003811015610512575f52600160205260405f2090565b6003811015610512575f52600c60205260405f2090565b6003811015610512575f52600460205260405f2090565b602435906001600160a01b038216820361021457565b600435906001600160a01b038216820361021457565b9060038210156105125752565b9060058210156105125752565b606090600319011261021457600435906024356001600160a01b0381168103610214579060443560ff811681036102145790565b91908203918211611bcd57565b60c0810190811067ffffffffffffffff82111761154057604052565b6101e0810190811067ffffffffffffffff82111761154057604052565b60a0810190811067ffffffffffffffff82111761154057604052565b6060810190811067ffffffffffffffff82111761154057604052565b90601f8019910116810190811067ffffffffffffffff82111761154057604052565b67ffffffffffffffff811161154057601f01601f191660200190565b3d1561274b573d9061273282612705565b9161274060405193846126e3565b82523d5f602084013e565b606090565b5f198114611bcd5760010190565b91908201809211611bcd57565b60038210156105125752565b805468010000000000000000811015611540576127999160018201815561251c565b60018060a09493941b038084549260031b9316831b921b1916179055565b60ff1660ff8114611bcd5760010190565b604051906127d5826126ab565b5f6080838281528260208201528260408201528260608201520152565b5f546001600160a01b0316330361280557565b60405163118cdaa760e01b8152336004820152602490fd5b5f805160206129f3833981519152600281541461283a5760029055565b604051633ee5aeb560e01b8152600490fd5b905f5b60ff60058183161015612894578160031b906107f860f8831692168203611bcd5760029164ffffffffff8616901c160361288e5760010160ff1661284f565b505f9150565b506001925050565b81519190604183036128cc576128c59250602082015190606060408401519301515f1a90612945565b9192909190565b50505f9160029190565b600481101561051257806128e8575050565b600181036129025760405163f645eedf60e01b8152600490fd5b600281036129235760405163fce698f760e01b815260048101839052602490fd5b60031461292d5750565b602490604051906335e2f38360e21b82526004820152fd5b91907f7fffffffffffffffffffffffffffffff5d576e7357a4501ddfe92f46681b20a084116129c7579160209360809260ff5f9560405194855216868401526040830152606082015282805260015afa156129bc575f516001600160a01b038116156129b257905f905f90565b505f906001905f90565b6040513d5f823e3d90fd5b5050505f916003919056fe1d976cdb8f2afd1ab28a617641fe7576736b87373eb5d19ffe41ffd29ca066a99b779b17422d0df92223018b32b4d1fa46e071723d6817e2486d003becc55f00a26469706673582212202e985d8390b042ccaef630d54c8bd58ae143ef1b94252e183570e80c1445676c64736f6c63430008180033","linkReferences":{}},"methodIdentifiers":{"EMERGENCY_TIMEOUT()":"7f264076","MAX_GUESSES()":"684d4678","MAX_PLAYERS_PER_ROUND()":"14b1e0e4","MIN_PLAYERS()":"85f07bbe","PROTOCOL_FEE_BPS()":"be378228","WORD_LENGTH()":"39b81238","advancePhase(uint256)":"81aaf4ce","claimPrize(uint256)":"d7098154","commitGuess(uint256,bytes32)":"ae9b2d64","commitments(uint256,address,uint8)":"e3fc18c0","createRound(uint8,bytes32,bytes32[])":"3235f10d","currentRoundByTier(uint8)":"b3409523","emergencyRefund(uint256)":"70e5deb9","feeVault()":"478222c2","finalizeRound(uint256)":"3469f6e2","getCommitment(uint256,address,uint8)":"a2033876","getPlayerState(uint256,address)":"b20bfbb9","getRound(uint256)":"8f1327c0","getRoundPlayers(uint256)":"776e11dd","getRoundWinners(uint256)":"2e881471","getTierConfig(uint8)":"c022c523","merkleRoot()":"2eb4a7ab","oracle()":"7dc0d1d0","owner()":"8da5cb5b","playerStates(uint256,address)":"c0338ba3","register(uint256)":"f207564e","renounceOwnership()":"715018a6","rescueETH()":"20800a00","revealGuess(uint256,bytes5,bytes32,bytes32[])":"7aa6f521","rolloverPots(uint8)":"74b54699","roundCounter()":"febc14b1","roundPlayers(uint256,uint256)":"671eea01","roundWinners(uint256,uint256)":"03e3cd6a","rounds(uint256)":"8c65c81f","setFeeVault(address)":"a591f97f","setMerkleRoot(bytes32)":"7cb64759","setOracle(address)":"7adbf973","setTierConfig(uint8,uint256,uint256,uint256,uint256,uint256,bool)":"aced0b9e","startRound(uint256)":"5fc3d52d","submitFeedback(uint256,address,uint8,uint40,bytes)":"79014c8c","tierConfigs(uint8)":"9da9db2a","totalActivePots()":"c8eb168d","transferOwnership(address)":"f2fde38b"},"id":33}