{"abi":[{"type":"constructor","inputs":[{"name":"_feeVault","type":"address","internalType":"address"},{"name":"_merkleRoot","type":"bytes32","internalType":"bytes32"}],"stateMutability":"nonpayable"},{"type":"receive","stateMutability":"payable"},{"type":"function","name":"MAX_GUESSES","inputs":[],"outputs":[{"name":"","type":"uint8","internalType":"uint8"}],"stateMutability":"view"},{"type":"function","name":"MAX_PLAYERS_PER_ROUND","inputs":[],"outputs":[{"name":"","type":"uint256","internalType":"uint256"}],"stateMutability":"view"},{"type":"function","name":"PROTOCOL_FEE_BPS","inputs":[],"outputs":[{"name":"","type":"uint16","internalType":"uint16"}],"stateMutability":"view"},{"type":"function","name":"WORD_LENGTH","inputs":[],"outputs":[{"name":"","type":"uint8","internalType":"uint8"}],"stateMutability":"view"},{"type":"function","name":"advancePhase","inputs":[{"name":"roundId","type":"uint256","internalType":"uint256"}],"outputs":[],"stateMutability":"nonpayable"},{"type":"function","name":"commitGuess","inputs":[{"name":"roundId","type":"uint256","internalType":"uint256"},{"name":"commitment","type":"bytes32","internalType":"bytes32"}],"outputs":[],"stateMutability":"nonpayable"},{"type":"function","name":"commitments","inputs":[{"name":"","type":"uint256","internalType":"uint256"},{"name":"","type":"address","internalType":"address"},{"name":"","type":"uint8","internalType":"uint8"}],"outputs":[{"name":"hash","type":"bytes32","internalType":"bytes32"},{"name":"timestamp","type":"uint256","internalType":"uint256"},{"name":"revealed","type":"bool","internalType":"bool"},{"name":"guess","type":"bytes5","internalType":"bytes5"}],"stateMutability":"view"},{"type":"function","name":"createRound","inputs":[{"name":"tier","type":"uint8","internalType":"enum WordDuelArena.Tier"},{"name":"wordHash","type":"bytes32","internalType":"bytes32"}],"outputs":[{"name":"","type":"uint256","internalType":"uint256"}],"stateMutability":"nonpayable"},{"type":"function","name":"currentRoundByTier","inputs":[{"name":"","type":"uint8","internalType":"enum WordDuelArena.Tier"}],"outputs":[{"name":"","type":"uint256","internalType":"uint256"}],"stateMutability":"view"},{"type":"function","name":"evaluateRound","inputs":[{"name":"roundId","type":"uint256","internalType":"uint256"},{"name":"word","type":"bytes5","internalType":"bytes5"},{"name":"wordSalt","type":"bytes32","internalType":"bytes32"}],"outputs":[],"stateMutability":"nonpayable"},{"type":"function","name":"feeVault","inputs":[],"outputs":[{"name":"","type":"address","internalType":"address"}],"stateMutability":"view"},{"type":"function","name":"finalizeRound","inputs":[{"name":"roundId","type":"uint256","internalType":"uint256"}],"outputs":[],"stateMutability":"nonpayable"},{"type":"function","name":"getCommitment","inputs":[{"name":"roundId","type":"uint256","internalType":"uint256"},{"name":"player","type":"address","internalType":"address"},{"name":"guessNum","type":"uint8","internalType":"uint8"}],"outputs":[{"name":"","type":"tuple","internalType":"struct WordDuelArena.Commitment","components":[{"name":"hash","type":"bytes32","internalType":"bytes32"},{"name":"timestamp","type":"uint256","internalType":"uint256"},{"name":"revealed","type":"bool","internalType":"bool"},{"name":"guess","type":"bytes5","internalType":"bytes5"}]}],"stateMutability":"view"},{"type":"function","name":"getPlayerState","inputs":[{"name":"roundId","type":"uint256","internalType":"uint256"},{"name":"player","type":"address","internalType":"address"}],"outputs":[{"name":"","type":"tuple","internalType":"struct WordDuelArena.PlayerState","components":[{"name":"registered","type":"bool","internalType":"bool"},{"name":"solved","type":"bool","internalType":"bool"},{"name":"solvedAtGuess","type":"uint8","internalType":"uint8"},{"name":"guessCount","type":"uint8","internalType":"uint8"}]}],"stateMutability":"view"},{"type":"function","name":"getRound","inputs":[{"name":"roundId","type":"uint256","internalType":"uint256"}],"outputs":[{"name":"","type":"tuple","internalType":"struct WordDuelArena.Round","components":[{"name":"id","type":"uint256","internalType":"uint256"},{"name":"tier","type":"uint8","internalType":"enum WordDuelArena.Tier"},{"name":"wordHash","type":"bytes32","internalType":"bytes32"},{"name":"wordSalt","type":"bytes32","internalType":"bytes32"},{"name":"word","type":"bytes5","internalType":"bytes5"},{"name":"pot","type":"uint256","internalType":"uint256"},{"name":"startTime","type":"uint256","internalType":"uint256"},{"name":"phaseDeadline","type":"uint256","internalType":"uint256"},{"name":"playerCount","type":"uint256","internalType":"uint256"},{"name":"phase","type":"uint8","internalType":"enum WordDuelArena.Phase"},{"name":"currentGuess","type":"uint8","internalType":"uint8"},{"name":"winningGuessNum","type":"uint8","internalType":"uint8"},{"name":"winnerCount","type":"uint256","internalType":"uint256"},{"name":"rolloverPot","type":"uint256","internalType":"uint256"}]}],"stateMutability":"view"},{"type":"function","name":"getRoundPlayers","inputs":[{"name":"roundId","type":"uint256","internalType":"uint256"}],"outputs":[{"name":"","type":"address[]","internalType":"address[]"}],"stateMutability":"view"},{"type":"function","name":"getRoundWinners","inputs":[{"name":"roundId","type":"uint256","internalType":"uint256"}],"outputs":[{"name":"","type":"address[]","internalType":"address[]"}],"stateMutability":"view"},{"type":"function","name":"getTierConfig","inputs":[{"name":"tier","type":"uint8","internalType":"enum WordDuelArena.Tier"}],"outputs":[{"name":"","type":"tuple","internalType":"struct WordDuelArena.TierConfig","components":[{"name":"entryFee","type":"uint256","internalType":"uint256"},{"name":"roundDuration","type":"uint256","internalType":"uint256"},{"name":"commitWindow","type":"uint256","internalType":"uint256"},{"name":"revealWindow","type":"uint256","internalType":"uint256"},{"name":"active","type":"bool","internalType":"bool"}]}],"stateMutability":"view"},{"type":"function","name":"merkleRoot","inputs":[],"outputs":[{"name":"","type":"bytes32","internalType":"bytes32"}],"stateMutability":"view"},{"type":"function","name":"owner","inputs":[],"outputs":[{"name":"","type":"address","internalType":"address"}],"stateMutability":"view"},{"type":"function","name":"playerStates","inputs":[{"name":"","type":"uint256","internalType":"uint256"},{"name":"","type":"address","internalType":"address"}],"outputs":[{"name":"registered","type":"bool","internalType":"bool"},{"name":"solved","type":"bool","internalType":"bool"},{"name":"solvedAtGuess","type":"uint8","internalType":"uint8"},{"name":"guessCount","type":"uint8","internalType":"uint8"}],"stateMutability":"view"},{"type":"function","name":"register","inputs":[{"name":"roundId","type":"uint256","internalType":"uint256"}],"outputs":[],"stateMutability":"payable"},{"type":"function","name":"renounceOwnership","inputs":[],"outputs":[],"stateMutability":"nonpayable"},{"type":"function","name":"revealGuess","inputs":[{"name":"roundId","type":"uint256","internalType":"uint256"},{"name":"guess","type":"bytes5","internalType":"bytes5"},{"name":"salt","type":"bytes32","internalType":"bytes32"},{"name":"wordProof","type":"bytes32[]","internalType":"bytes32[]"}],"outputs":[],"stateMutability":"nonpayable"},{"type":"function","name":"rolloverPots","inputs":[{"name":"","type":"uint8","internalType":"enum WordDuelArena.Tier"}],"outputs":[{"name":"","type":"uint256","internalType":"uint256"}],"stateMutability":"view"},{"type":"function","name":"roundCounter","inputs":[],"outputs":[{"name":"","type":"uint256","internalType":"uint256"}],"stateMutability":"view"},{"type":"function","name":"roundPlayers","inputs":[{"name":"","type":"uint256","internalType":"uint256"},{"name":"","type":"uint256","internalType":"uint256"}],"outputs":[{"name":"","type":"address","internalType":"address"}],"stateMutability":"view"},{"type":"function","name":"roundWinners","inputs":[{"name":"","type":"uint256","internalType":"uint256"},{"name":"","type":"uint256","internalType":"uint256"}],"outputs":[{"name":"","type":"address","internalType":"address"}],"stateMutability":"view"},{"type":"function","name":"rounds","inputs":[{"name":"","type":"uint256","internalType":"uint256"}],"outputs":[{"name":"id","type":"uint256","internalType":"uint256"},{"name":"tier","type":"uint8","internalType":"enum WordDuelArena.Tier"},{"name":"wordHash","type":"bytes32","internalType":"bytes32"},{"name":"wordSalt","type":"bytes32","internalType":"bytes32"},{"name":"word","type":"bytes5","internalType":"bytes5"},{"name":"pot","type":"uint256","internalType":"uint256"},{"name":"startTime","type":"uint256","internalType":"uint256"},{"name":"phaseDeadline","type":"uint256","internalType":"uint256"},{"name":"playerCount","type":"uint256","internalType":"uint256"},{"name":"phase","type":"uint8","internalType":"enum WordDuelArena.Phase"},{"name":"currentGuess","type":"uint8","internalType":"uint8"},{"name":"winningGuessNum","type":"uint8","internalType":"uint8"},{"name":"winnerCount","type":"uint256","internalType":"uint256"},{"name":"rolloverPot","type":"uint256","internalType":"uint256"}],"stateMutability":"view"},{"type":"function","name":"setFeeVault","inputs":[{"name":"_feeVault","type":"address","internalType":"address"}],"outputs":[],"stateMutability":"nonpayable"},{"type":"function","name":"setMerkleRoot","inputs":[{"name":"_merkleRoot","type":"bytes32","internalType":"bytes32"}],"outputs":[],"stateMutability":"nonpayable"},{"type":"function","name":"setTierConfig","inputs":[{"name":"tier","type":"uint8","internalType":"enum WordDuelArena.Tier"},{"name":"entryFee","type":"uint256","internalType":"uint256"},{"name":"roundDuration","type":"uint256","internalType":"uint256"},{"name":"commitWindow","type":"uint256","internalType":"uint256"},{"name":"revealWindow","type":"uint256","internalType":"uint256"},{"name":"active","type":"bool","internalType":"bool"}],"outputs":[],"stateMutability":"nonpayable"},{"type":"function","name":"startRound","inputs":[{"name":"roundId","type":"uint256","internalType":"uint256"}],"outputs":[],"stateMutability":"nonpayable"},{"type":"function","name":"tierConfigs","inputs":[{"name":"","type":"uint8","internalType":"enum WordDuelArena.Tier"}],"outputs":[{"name":"entryFee","type":"uint256","internalType":"uint256"},{"name":"roundDuration","type":"uint256","internalType":"uint256"},{"name":"commitWindow","type":"uint256","internalType":"uint256"},{"name":"revealWindow","type":"uint256","internalType":"uint256"},{"name":"active","type":"bool","internalType":"bool"}],"stateMutability":"view"},{"type":"function","name":"transferOwnership","inputs":[{"name":"newOwner","type":"address","internalType":"address"}],"outputs":[],"stateMutability":"nonpayable"},{"type":"event","name":"GuessCommitted","inputs":[{"name":"roundId","type":"uint256","indexed":true,"internalType":"uint256"},{"name":"player","type":"address","indexed":true,"internalType":"address"},{"name":"guessNum","type":"uint8","indexed":false,"internalType":"uint8"}],"anonymous":false},{"type":"event","name":"GuessRevealed","inputs":[{"name":"roundId","type":"uint256","indexed":true,"internalType":"uint256"},{"name":"player","type":"address","indexed":true,"internalType":"address"},{"name":"guessNum","type":"uint8","indexed":false,"internalType":"uint8"},{"name":"guess","type":"bytes5","indexed":false,"internalType":"bytes5"},{"name":"correctCount","type":"uint8","indexed":false,"internalType":"uint8"}],"anonymous":false},{"type":"event","name":"OwnershipTransferred","inputs":[{"name":"previousOwner","type":"address","indexed":true,"internalType":"address"},{"name":"newOwner","type":"address","indexed":true,"internalType":"address"}],"anonymous":false},{"type":"event","name":"PhaseAdvanced","inputs":[{"name":"roundId","type":"uint256","indexed":true,"internalType":"uint256"},{"name":"phase","type":"uint8","indexed":false,"internalType":"enum WordDuelArena.Phase"},{"name":"guessNum","type":"uint8","indexed":false,"internalType":"uint8"},{"name":"deadline","type":"uint256","indexed":false,"internalType":"uint256"}],"anonymous":false},{"type":"event","name":"PlayerRegistered","inputs":[{"name":"roundId","type":"uint256","indexed":true,"internalType":"uint256"},{"name":"player","type":"address","indexed":true,"internalType":"address"},{"name":"pot","type":"uint256","indexed":false,"internalType":"uint256"}],"anonymous":false},{"type":"event","name":"PlayerSolved","inputs":[{"name":"roundId","type":"uint256","indexed":true,"internalType":"uint256"},{"name":"player","type":"address","indexed":true,"internalType":"address"},{"name":"guessNum","type":"uint8","indexed":false,"internalType":"uint8"}],"anonymous":false},{"type":"event","name":"PotRollover","inputs":[{"name":"tier","type":"uint8","indexed":true,"internalType":"enum WordDuelArena.Tier"},{"name":"amount","type":"uint256","indexed":false,"internalType":"uint256"},{"name":"nextRoundId","type":"uint256","indexed":false,"internalType":"uint256"}],"anonymous":false},{"type":"event","name":"RoundComplete","inputs":[{"name":"roundId","type":"uint256","indexed":true,"internalType":"uint256"},{"name":"word","type":"bytes5","indexed":false,"internalType":"bytes5"},{"name":"winnerCount","type":"uint256","indexed":false,"internalType":"uint256"},{"name":"prizePerWinner","type":"uint256","indexed":false,"internalType":"uint256"}],"anonymous":false},{"type":"event","name":"RoundCreated","inputs":[{"name":"roundId","type":"uint256","indexed":true,"internalType":"uint256"},{"name":"tier","type":"uint8","indexed":true,"internalType":"enum WordDuelArena.Tier"},{"name":"wordHash","type":"bytes32","indexed":false,"internalType":"bytes32"},{"name":"startTime","type":"uint256","indexed":false,"internalType":"uint256"}],"anonymous":false},{"type":"event","name":"TierConfigured","inputs":[{"name":"tier","type":"uint8","indexed":true,"internalType":"enum WordDuelArena.Tier"},{"name":"entryFee","type":"uint256","indexed":false,"internalType":"uint256"},{"name":"commitWindow","type":"uint256","indexed":false,"internalType":"uint256"},{"name":"revealWindow","type":"uint256","indexed":false,"internalType":"uint256"}],"anonymous":false},{"type":"error","name":"AlreadyCommitted","inputs":[]},{"type":"error","name":"AlreadyRegistered","inputs":[]},{"type":"error","name":"AlreadyRevealed","inputs":[]},{"type":"error","name":"CommitWindowClosed","inputs":[]},{"type":"error","name":"IncorrectEntryFee","inputs":[]},{"type":"error","name":"InvalidReveal","inputs":[]},{"type":"error","name":"InvalidTier","inputs":[]},{"type":"error","name":"InvalidWordProof","inputs":[]},{"type":"error","name":"MaxPlayersReached","inputs":[]},{"type":"error","name":"NotCommitted","inputs":[]},{"type":"error","name":"NotRegistered","inputs":[]},{"type":"error","name":"OwnableInvalidOwner","inputs":[{"name":"owner","type":"address","internalType":"address"}]},{"type":"error","name":"OwnableUnauthorizedAccount","inputs":[{"name":"account","type":"address","internalType":"address"}]},{"type":"error","name":"PhaseNotComplete","inputs":[]},{"type":"error","name":"PlayerAlreadySolved","inputs":[]},{"type":"error","name":"ReentrancyGuardReentrantCall","inputs":[]},{"type":"error","name":"RevealWindowClosed","inputs":[]},{"type":"error","name":"RoundNotComplete","inputs":[]},{"type":"error","name":"RoundNotInPhase","inputs":[{"name":"expected","type":"uint8","internalType":"enum WordDuelArena.Phase"},{"name":"actual","type":"uint8","internalType":"enum WordDuelArena.Phase"}]},{"type":"error","name":"TierNotActive","inputs":[]}],"bytecode":{"object":"0x6080346200022a576200243890601f38839003908101601f19168201906001600160401b038211838310176200022e57808391604095869485528339810103126200022a5780516001600160a01b03808216918290036200022a576020809301513315620002135760ff916004915f94855460018060a01b031993338583161788553391167f8be0079c531659141344cd1fd0a4f28419497f9722a3daafe3b4186f6b6457e08880a3600192837f9b779b17422d0df92223018b32b4d1fa46e071723d6817e2486d003becc55f0055600a541617600a55600955620000e362000242565b66038d7ea4c680008152610384868201908152601e8883018181526060840191825260808401858152888052858a528a89209451855592518486015551600284015551600383015551908301805491151585168519928316179055936200014962000242565b662386f26fc1000081528387820191610e108352898101602d81526060820190602d82526080830194878652878752878c528c8720935184555187840155516002830155516003820155019051151585878354169116179055620001ac62000242565b9167016345785d8a0000835286830190615460825288840191603c8352896060860194603c865283608088019b828d526002835252209451855551908401555160028301555160038201550192511515918354169116179055516121d59081620002638239f35b8451631e4fbdf760e01b81525f6004820152602490fd5b5f80fd5b634e487b7160e01b5f52604160045260245ffd5b6040519060a082016001600160401b038111838210176200022e5760405256fe6080604052600436101561001a575b3615610018575f80fd5b005b5f3560e01c806303e3cd6a14611e1d57806314b1e0e414611e02578063287b197114611d245780632e88147114611cb65780632eb4a7ab14611c995780633469f6e21461199e57806339b8123814611983578063478222c21461195b5780635fc3d52d146118c9578063671eea0114611881578063684d467814611866578063715018a61461180f57806374b54699146117e7578063776e11dd146117695780637aa6f521146114575780637cb647591461143657806381aaf4ce1461122b5780638c65c81f1461114b5780638da5cb5b146111245780638f1327c014610f2857806392d7c70f14610ca65780639da9db2a14610c44578063a203387614610b9d578063a3ee5a38146108b2578063a591f97f1461086f578063ae9b2d6414610731578063b20bfbb91461068e578063b34095231461065d578063be37822814610641578063c022c52314610589578063c0338ba31461051d578063e3fc18c0146104a9578063f207564e1461024a578063f2fde38b146101c05763febc14b10361000e57346101bc575f3660031901126101bc576020600354604051908152f35b5f80fd5b346101bc5760203660031901126101bc576101d9611f44565b6101e1611fa4565b6001600160a01b03908116908115610232575f54826bffffffffffffffffffffffff60a01b8216175f55167f8be0079c531659141344cd1fd0a4f28419497f9722a3daafe3b4186f6b6457e05f80a3005b604051631e4fbdf760e01b81525f6004820152602490fd5b6020806003193601126101bc576004356102626120c9565b805f526002825260405f208054156104975760ff806009830154166005811015610483578061045d5750825f526005845260405f20335f5284528060405f20541661044b576008820191606483541015610439576102c582600183015416611ece565b6040516102d181611fcf565b608084600484549485855260018101548b860152600281015460408601526003810154606086015201541615159101523403610427577f1554eea6bdedf6e383fb69807ae2cb84a760cbea05b884c10fd0b94950addcc8926103c86005936040519061033c82612008565b60018252876103ae828b8086015f81528a60408801925f845260608901965f88525f52528d60405f2090335f525261038760405f2097511515889060ff801983541691151516179055565b518654915162ffff001990921690151560081b61ff001617911660101b62ff000016178455565b51825463ff0000001916911660181b63ff00000016179055565b845f52600786526103dc3360405f20612089565b6103e68154612062565b905501926103f5348554612070565b8094556040519384523393a360017f9b779b17422d0df92223018b32b4d1fa46e071723d6817e2486d003becc55f0055005b604051630440523d60e41b8152600490fd5b6040516394d0eef960e01b8152600490fd5b604051630ea075bf60e21b8152600490fd5b604051630c5308c160e01b81525f6004820152604491610481906024830190611f37565bfd5b634e487b7160e01b5f52602160045260245ffd5b60405163e142361760e01b8152600490fd5b346101bc576104b736611f70565b915f52600660205260405f209060018060a01b03165f5260205260ff60405f2091165f52602052608060405f208054906002600182015491015490604051928352602083015260ff81161515604083015264ffffffffff60d81b9060d01b166060820152f35b346101bc5760403660031901126101bc57610536611f5a565b6004355f52600560205260405f209060018060a01b03165f52602052608060405f205460ff6040519181811615158352818160081c1615156020840152818160101c16604084015260181c166060820152f35b346101bc5760203660031901126101bc5760043560038110156101bc576105d760a0915f60806040516105bb81611fcf565b8281528260208201528260408201528260608201520152611ece565b6040516105e381611fcf565b81549182825260018101546020830190815260028201549060408401918252608060ff600460038601549560608801968752015416940193151584526040519485525160208501525160408401525160608301525115156080820152f35b346101bc575f3660031901126101bc5760206040516101f48152f35b346101bc5760203660031901126101bc5760043560038110156101bc57610685602091611efc565b54604051908152f35b346101bc5760403660031901126101bc576106a7611f5a565b6106af61215b565b506004355f52600560205260405f209060018060a01b03165f52602052608060405f20604051906106df82612008565b5460ff908180821615159384815260208101828460081c16151581528260606040840193828760101c168552019460181c16845260405195865251151560208601525116604084015251166060820152f35b346101bc5760403660031901126101bc57600435805f526020906002825260405f206005835260405f20335f52835260405f205460ff81161561085d5760098201549160ff83166005811015610483576001810361083857506007015442116108265760081c60ff166108145760ff9060081c1691815f526006815260405f20335f52815260405f20835f52815260405f20908154610802577fa8f91b2fc64e18f777ce3d6145ec3c540e68b6057671fabe5efe45104c4ac96b9160243581556001429101556040519384523393a3005b6040516317fd8aab60e31b8152600490fd5b60405163b2e1503360e01b8152600490fd5b6040516352cc987160e11b8152600490fd5b604051630c5308c160e01b815260016004820152604491610481906024830190611f37565b60405163aba4733960e01b8152600490fd5b346101bc5760203660031901126101bc57610888611f44565b610890611fa4565b600a80546001600160a01b0319166001600160a01b0392909216919091179055005b346101bc5760603660031901126101bc576108cb611f13565b6044356004355f52600260205260405f209060098201549060ff821660058110156104835760038103610b7857506040516001600160d81b0319851660208201908152602582018390529061092d81604581015b03601f198101835282612040565b519020600284015403610b66576004839293018460d81c64ffffffffff1982541617905560038201556004355f52600760205260405f20905f935b82548510156100185761097b8584611e62565b60018060a01b0391549060031b1c16946004355f52600560205260405f20865f5260205260405f209485549360ff8560081c16610b56576004355f52600660205260405f20885f5260205260405f2060ff8360081c165f52602052600260405f2001549460ff861615610b45575f965f5b600560ff82161015610a4f5760ff811687811a60f890811b6001600160f81b03199081166001600160d81b031960d08d901b1690931a90911b1614610a3a575b610a359061210b565b6109ec565b97610a47610a359161210b565b989050610a2c565b509790919550600560ff610a6f969a94981614610a78575b505050612062565b93929192610968565b62ffff0019909116600887901b62ff0000161761010017815560ff9081600987015460101c1615610b22575b5460101c1660ff600986015460101c1614610af6575b60405160ff8660081c1681527fd6c9ece6c2f8af5b6bf6d5c572df38d0d84dd8176b083ff499afb4d91dda16c3602060043592a3868080610a67565b6004355f526008602052610b0d8160405f20612089565b600a8401610b1b8154612062565b9055610aba565b60098601805462ff00001916600889901c841660101b62ff000016179055610aa4565b509350939450610a6f919550612062565b9350939450610a6f919550612062565b604051639b328ddd60e01b8152600490fd5b604051630c5308c160e01b815260036004820152604491610481906024830190611f37565b346101bc57610bab36611f70565b91610bb461215b565b505f52600660205260405f209060018060a01b03165f5260205260ff60405f2091165f52602052608060405f20604051610bed81612008565b8154918282526002600182015491602084019283520154916060604082019160ff851615158352019164ffffffffff60d81b809460d01b168352604051948552516020850152511515604084015251166060820152f35b346101bc5760203660031901126101bc5760043560038110156101bc57610c6c60a091611ece565b805490600181015490600281015460ff60046003840154930154169260405194855260208501526040840152606083015215156080820152f35b346101bc5760403660031901126101bc57600360043510156101bc57610cca611fa4565b610cd5600435611ece565b604051610ce181611fcf565b8154815260ff6004600184015493602084019485526002810154604085015260038101546060850152015416159060808215910152610f1657610d25600354612062565b80600355610d40610d37600435611ee5565b54925142612070565b610d4b600435611ee5565b549060405193610d5a85611feb565b838552610d6c6004356020870161207d565b60243560408601525f60608601525f608086015260a08501524260c085015260e08401525f6101008401525f6101208401525f6101408401525f6101608401525f6101808401526101a0830152805f52600260205260405f20825181556020830151926003841015610483576001820160ff199460ff868354169116179055604081015160028301556060810151600383015560048201608082015160d81c64ffffffffff1982541617905560a0810151600583015560c0810151600683015560e081015160078301556101008101516008830155600982019061012081015190600582101561048357610eae836101a09360ff602099600b9754169116178155610e9060ff61014085015116829061ff0082549160081b169061ff001916179055565b610160830151815462ff0000191660109190911b62ff000016179055565b610180810151600a85015501519101555f610eca600435611ee5565b5580610ed7600435611efc565b5560405160243581524283820152817f23a14831e80587b6969622490d42739244b98c6342779b8fcdb4869caf5b5762604060043593a3604051908152f35b604051632015bd1360e11b8152600490fd5b346101bc5760203660031901126101bc575f6101a0604051610f4981611feb565b8281528260208201528260408201528260608201528260808201528260a08201528260c08201528260e0820152826101008201528261012082015282610140820152826101608201528261018082015201526004355f52600260205260405f20604051610fb581611feb565b81548152610fcd60ff6001840154166020830161207d565b6002820154604082015260038201546060820152600482015460d81b6001600160d81b031916608082015260058083015460a0830152600683015460c0830152600783015460e0830152600883015461010083015260098301549060ff82161015610483576101c09260ff8281600b9416610120860152818160081c1661014086015260101c16610160840152600a81015461018084015201546101a08201526101a0604051918051835261108a60208201516020850190611f2a565b604081015160408401526060810151606084015264ffffffffff60d81b608082015116608084015260a081015160a084015260c081015160c084015260e081015160e08401526101008101516101008401526110f0610120820151610120850190611f37565b60ff6101408201511661014084015260ff6101608201511661016084015261018081015161018084015201516101a0820152f35b346101bc575f3660031901126101bc575f546040516001600160a01b039091168152602090f35b346101bc5760203660031901126101bc576004355f5260026020526101c060405f2080549060ff6001820154169060ff60028201546003830154600484015460d81b60058501546006860154906007870154926008880154946009890154966111c9600b600a8c01549b01549b60206040519e8f9081520190611f2a565b60408c015260608b01526001600160d81b03191660808a015260a089015260c088015260e08701526101008601526112076101208601828416611f37565b818160081c1661014086015260101c166101608401526101808301526101a0820152f35b346101bc576020806003193601126101bc5760043590815f526002815260405f2060ff9061125e82600183015416611ece565b916040519261126c84611fcf565b805484526001810154858501526002810154936040810194855260808360046003850154946060850195865201541615159101526007830192835442106114245760090193845483811660058110156104835760018103611310575050509360609392916112f55f8051602061218083398151915296600260ff19875416178096555142612070565b809355604051936002855260081c16908301526040820152a2005b939491939092506002810361135b5750505050905f8051602061218083398151915292606092600360ff1984541617809355604051926003845260081c1690820152426040820152a2005b9295919493909260031461136b57005b5f8051602061218083398151915295858260609760101c1615801590611414575b156113bb575050909150600460ff1984541617809355604051926004845260081c1690820152426040820152a2005b906113e66113d0846113f99460081c1661210b565b875461ff00191660089190911b61ff0016178755565b600160ff19875416178096555142612070565b809355604051936001855260081c16908301526040820152a2005b506006838260081c16101561138c565b6040516315150fb960e01b8152600490fd5b346101bc5760203660031901126101bc5761144f611fa4565b600435600955005b346101bc5760803660031901126101bc57611470611f13565b67ffffffffffffffff606435116101bc573660236064350112156101bc5767ffffffffffffffff60643560040135116101bc573660246064356004013560051b6064350101116101bc576004355f52600260205260405f2090600560205260405f20335f5260205260405f20805460ff81161561085d5760098401549360ff85166005811015610483576002810361174457506007015442116117325760081c60ff16610814576004355f52600660205260405f20335f5260205260405f2060ff8460081c165f5260205260405f209081549182156117205760028101549260ff841661170e576040516001600160d81b0319861660208201908152604435602583015290611582816045810161091f565b519020036116fc576009548061162d575b50600260016115e09465ffffffffff008760d01c169065ffffffffffff191617179101556115c760ff825460181c1661210b565b63ff00000082549160181b169063ff0000001916179055565b60ff6040519260081c16825264ffffffffff60d81b1660208201525f604082015233907f296a06efaff876f2baa111084716d4e707c839bbb644005ff1f484154074b4e5606060043592a3005b60405164ffffffffff60d81b861660208201526005815280604081011067ffffffffffffffff6040830111176116e85760408101604052602081519101205f5b606435600401358110611686575003610b665785611593565b906116c590606435600584901b01602401358082116116ca5760405190602082019283526040820152604081526116bc81612024565b51902091612062565b61166d565b9060405190602082019283526040820152604081526116bc81612024565b634e487b7160e01b5f52604160045260245ffd5b604051639ea6d12760e01b8152600490fd5b60405163a89ac15160e01b8152600490fd5b60405163205e472d60e21b8152600490fd5b6040516340d8392160e11b8152600490fd5b604051630c5308c160e01b815260026004820152604491610481906024830190611f37565b346101bc576020806003193601126101bc576004355f526007815260405f209060405190818184549182815201935f52815f20915f905b8282106117c7576117c3856117b781890382612040565b60405191829182611e8b565b0390f35b83546001600160a01b0316865294850194600193840193909101906117a0565b346101bc5760203660031901126101bc5760043560038110156101bc57610685602091611ee5565b346101bc575f3660031901126101bc57611827611fa4565b5f80546001600160a01b0319811682556001600160a01b03167f8be0079c531659141344cd1fd0a4f28419497f9722a3daafe3b4186f6b6457e08280a3005b346101bc575f3660031901126101bc57602060405160068152f35b346101bc5761188f36611e4c565b905f52600760205260405f2080548210156101bc576020916118b091611e62565b905460405160039290921b1c6001600160a01b03168152f35b346101bc5760203660031901126101bc57600435805f52600260205260405f2060098101805460ff81166005811015610483578061045d57505f805160206121808339815191529260609261010160079361ffff191617905561193f600261193760ff600185015416611ece565b015442612070565b91829101556040519060018252600160208301526040820152a2005b346101bc575f3660031901126101bc57600a546040516001600160a01b039091168152602090f35b346101bc575f3660031901126101bc57602060405160058152f35b346101bc576020806003193601126101bc57600435906119bc6120c9565b815f526002815260405f209160ff600984015416600581101561048357600403611c8857600583018054906101f4808302908382041483151715611c74576127109004808303928311611c745780151580611c60575b611bfb575b50600a8501805490929015611b4f578254908115611b3b570492805f526008855260405f20925f5b8454811015611ac4575f80808089611a57868b611e62565b905460039190911b1c6001600160a01b03165af1611a7361211c565b5015611a8757611a8290612062565b611a3f565b60405162461bcd60e51b8152600481018890526015602482015274141c9a5e99481d1c985b9cd9995c8819985a5b1959605a1b6044820152606490fd5b5090937fa0c738abd65a2be4f2045278c7f323677bfa5330e70778160203e5f783735a1293506060929560045f98015460d81b9254906040519364ffffffffff60d81b1684528301526040820152a25b5560017f9b779b17422d0df92223018b32b4d1fa46e071723d6817e2486d003becc55f0055005b634e487b7160e01b5f52601260045260245ffd5b9150929360ff60018201611b6582825416611ee5565b611b70858254612070565b90555416946003861015610483575f600460609382987ff184f4d5ee7aefe9751716b5b75ed64fa6aea3372fda5f9ccf01b26c73193b8860407fa0c738abd65a2be4f2045278c7f323677bfa5330e70778160203e5f783735a129881519081528688820152a2015460d81b916040519264ffffffffff60d81b168352820152856040820152a2611b14565b600a545f918291829182916001600160a01b03165af1611c1961211c565b5015611c255785611a17565b60405162461bcd60e51b8152600481018590526013602482015272119959481d1c985b9cd9995c8819985a5b1959606a1b6044820152606490fd5b50600a546001600160a01b03161515611a12565b634e487b7160e01b5f52601160045260245ffd5b60405162ace4c560e51b8152600490fd5b346101bc575f3660031901126101bc576020600954604051908152f35b346101bc576020806003193601126101bc576004355f526008815260405f209060405190818184549182815201935f52815f20915f905b828210611d04576117c3856117b781890382612040565b83546001600160a01b031686529485019460019384019390910190611ced565b346101bc5760c03660031901126101bc5760043560038110156101bc57602435606435906084359060a435918215158093036101bc577f6f760b312ddfff90c5e0676d8e208d6359b435622eb7af7512da45e2f99096dc93611def606094611d8a611fa4565b600460405191611d9983611fcf565b868352602083016044358152604084018681528985019188835260808601938452611dc38d611ece565b9551865551600186015551600285015551600384015551151591019060ff801983541691151516179055565b60405192835260208301526040820152a2005b346101bc575f3660031901126101bc57602060405160648152f35b346101bc57611e2b36611e4c565b905f52600860205260405f2080548210156101bc576020916118b091611e62565b60409060031901126101bc576004359060243590565b8054821015611e77575f5260205f2001905f90565b634e487b7160e01b5f52603260045260245ffd5b602090816040818301928281528551809452019301915f5b828110611eb1575050505090565b83516001600160a01b031685529381019392810192600101611ea3565b6003811015610483575f52600160205260405f2090565b6003811015610483575f52600b60205260405f2090565b6003811015610483575f52600460205260405f2090565b602435906001600160d81b0319821682036101bc57565b9060038210156104835752565b9060058210156104835752565b600435906001600160a01b03821682036101bc57565b602435906001600160a01b03821682036101bc57565b60609060031901126101bc57600435906024356001600160a01b03811681036101bc579060443560ff811681036101bc5790565b5f546001600160a01b03163303611fb757565b60405163118cdaa760e01b8152336004820152602490fd5b60a0810190811067ffffffffffffffff8211176116e857604052565b6101c0810190811067ffffffffffffffff8211176116e857604052565b6080810190811067ffffffffffffffff8211176116e857604052565b6060810190811067ffffffffffffffff8211176116e857604052565b90601f8019910116810190811067ffffffffffffffff8211176116e857604052565b5f198114611c745760010190565b91908201809211611c7457565b60038210156104835752565b8054680100000000000000008110156116e8576120ab91600182018155611e62565b819291549060031b9160018060a01b03809116831b921b1916179055565b7f9b779b17422d0df92223018b32b4d1fa46e071723d6817e2486d003becc55f0060028154146120f95760029055565b604051633ee5aeb560e01b8152600490fd5b60ff1660ff8114611c745760010190565b3d15612156573d9067ffffffffffffffff82116116e8576040519161214b601f8201601f191660200184612040565b82523d5f602084013e565b606090565b6040519061216882612008565b5f606083828152826020820152826040820152015256fe1d976cdb8f2afd1ab28a617641fe7576736b87373eb5d19ffe41ffd29ca066a9a2646970667358221220d09a711ce77480b5ac6d5f56bff73d68de9d34cb47f2e41cff5adec8c3b6343164736f6c63430008140033","linkReferences":{}},"methodIdentifiers":{"MAX_GUESSES()":"684d4678","MAX_PLAYERS_PER_ROUND()":"14b1e0e4","PROTOCOL_FEE_BPS()":"be378228","WORD_LENGTH()":"39b81238","advancePhase(uint256)":"81aaf4ce","commitGuess(uint256,bytes32)":"ae9b2d64","commitments(uint256,address,uint8)":"e3fc18c0","createRound(uint8,bytes32)":"92d7c70f","currentRoundByTier(uint8)":"b3409523","evaluateRound(uint256,bytes5,bytes32)":"a3ee5a38","feeVault()":"478222c2","finalizeRound(uint256)":"3469f6e2","getCommitment(uint256,address,uint8)":"a2033876","getPlayerState(uint256,address)":"b20bfbb9","getRound(uint256)":"8f1327c0","getRoundPlayers(uint256)":"776e11dd","getRoundWinners(uint256)":"2e881471","getTierConfig(uint8)":"c022c523","merkleRoot()":"2eb4a7ab","owner()":"8da5cb5b","playerStates(uint256,address)":"c0338ba3","register(uint256)":"f207564e","renounceOwnership()":"715018a6","revealGuess(uint256,bytes5,bytes32,bytes32[])":"7aa6f521","rolloverPots(uint8)":"74b54699","roundCounter()":"febc14b1","roundPlayers(uint256,uint256)":"671eea01","roundWinners(uint256,uint256)":"03e3cd6a","rounds(uint256)":"8c65c81f","setFeeVault(address)":"a591f97f","setMerkleRoot(bytes32)":"7cb64759","setTierConfig(uint8,uint256,uint256,uint256,uint256,bool)":"287b1971","startRound(uint256)":"5fc3d52d","tierConfigs(uint8)":"9da9db2a","transferOwnership(address)":"f2fde38b"},"id":24}